{
  "address": "0x70fF4242758639bd31dc0752325658DC8A2b2fA0",
  "abi": [
    {
      "anonymous": false,
      "inputs": [
        {
          "indexed": true,
          "internalType": "uint256",
          "name": "storyId",
          "type": "uint256"
        },
        {
          "indexed": false,
          "internalType": "string",
          "name": "title",
          "type": "string"
        },
        {
          "indexed": true,
          "internalType": "address",
          "name": "author",
          "type": "address"
        }
      ],
      "name": "StoryCreated",
      "type": "event"
    },
    {
      "anonymous": false,
      "inputs": [
        {
          "indexed": true,
          "internalType": "uint256",
          "name": "storyId",
          "type": "uint256"
        },
        {
          "indexed": false,
          "internalType": "string",
          "name": "content",
          "type": "string"
        },
        {
          "indexed": true,
          "internalType": "address",
          "name": "contributor",
          "type": "address"
        }
      ],
      "name": "StoryUpdated",
      "type": "event"
    },
    {
      "inputs": [
        {
          "internalType": "uint256",
          "name": "_storyId",
          "type": "uint256"
        }
      ],
      "name": "checkStoryExists",
      "outputs": [
        {
          "internalType": "bool",
          "name": "",
          "type": "bool"
        }
      ],
      "stateMutability": "view",
      "type": "function"
    },
    {
      "inputs": [
        {
          "internalType": "uint256",
          "name": "_storyId",
          "type": "uint256"
        },
        {
          "internalType": "string",
          "name": "_title",
          "type": "string"
        },
        {
          "internalType": "string",
          "name": "_content",
          "type": "string"
        }
      ],
      "name": "createStory",
      "outputs": [],
      "stateMutability": "nonpayable",
      "type": "function"
    },
    {
      "inputs": [],
      "name": "getAllStories",
      "outputs": [
        {
          "components": [
            {
              "internalType": "uint256",
              "name": "id",
              "type": "uint256"
            },
            {
              "internalType": "string",
              "name": "title",
              "type": "string"
            },
            {
              "internalType": "string",
              "name": "content",
              "type": "string"
            },
            {
              "internalType": "address",
              "name": "author",
              "type": "address"
            }
          ],
          "internalType": "struct Spooky.Story[]",
          "name": "",
          "type": "tuple[]"
        }
      ],
      "stateMutability": "view",
      "type": "function"
    },
    {
      "inputs": [
        {
          "internalType": "uint256",
          "name": "_storyId",
          "type": "uint256"
        }
      ],
      "name": "getStory",
      "outputs": [
        {
          "internalType": "uint256",
          "name": "",
          "type": "uint256"
        },
        {
          "internalType": "string",
          "name": "",
          "type": "string"
        },
        {
          "internalType": "string",
          "name": "",
          "type": "string"
        },
        {
          "internalType": "address",
          "name": "",
          "type": "address"
        }
      ],
      "stateMutability": "view",
      "type": "function"
    },
    {
      "inputs": [
        {
          "internalType": "uint256",
          "name": "",
          "type": "uint256"
        }
      ],
      "name": "stories",
      "outputs": [
        {
          "internalType": "uint256",
          "name": "id",
          "type": "uint256"
        },
        {
          "internalType": "string",
          "name": "title",
          "type": "string"
        },
        {
          "internalType": "string",
          "name": "content",
          "type": "string"
        },
        {
          "internalType": "address",
          "name": "author",
          "type": "address"
        }
      ],
      "stateMutability": "view",
      "type": "function"
    },
    {
      "inputs": [
        {
          "internalType": "uint256",
          "name": "",
          "type": "uint256"
        }
      ],
      "name": "storyIds",
      "outputs": [
        {
          "internalType": "uint256",
          "name": "",
          "type": "uint256"
        }
      ],
      "stateMutability": "view",
      "type": "function"
    },
    {
      "inputs": [
        {
          "internalType": "uint256",
          "name": "_storyId",
          "type": "uint256"
        },
        {
          "internalType": "string",
          "name": "_content",
          "type": "string"
        }
      ],
      "name": "updateStory",
      "outputs": [],
      "stateMutability": "nonpayable",
      "type": "function"
    }
  ],
  "transactionHash": "0x98fe71c3afb0395a6d125e404b49442cf9bf0c212090cd9a161dc2e121fa6665",
  "args": [],
  "numDeployments": 2,
  "solcInputHash": "e707b2404362258fbaa19f984fb4c2a8",
  "bytecode": "0x608060405234801561001057600080fd5b50610d27806100206000396000f3fe608060405234801561001057600080fd5b506004361061007d5760003560e01c8063191bbe2a1161005b578063191bbe2a146100e457806344a0f8b6146100f95780637ce9a0a81461012b5780638a3b6ab81461013e57600080fd5b806303cf950f146100825780630e7b793b146100ae578063159763f7146100c3575b600080fd5b6100956100903660046108b7565b610151565b6040516100a59493929190610916565b60405180910390f35b6100c16100bc3660046109fe565b6102fa565b005b6100d66100d13660046108b7565b61045e565b6040519081526020016100a5565b6100ec61047f565b6040516100a59190610a6b565b61011b6101073660046108b7565b600090815260208190526040902054151590565b60405190151581526020016100a5565b6100c1610139366004610b10565b6106d6565b61009561014c3660046108b7565b610775565b60008181526020819052604081208054606091829184919082036101b35760405162461bcd60e51b815260206004820152601460248201527314dd1bdc9e48191bd95cc81b9bdd08195e1a5cdd60621b60448201526064015b60405180910390fd5b80546003820154600183018054909160028501916001600160a01b039091169083906101de90610b57565b80601f016020809104026020016040519081016040528092919081815260200182805461020a90610b57565b80156102575780601f1061022c57610100808354040283529160200191610257565b820191906000526020600020905b81548152906001019060200180831161023a57829003601f168201915b5050505050925081805461026a90610b57565b80601f016020809104026020016040519081016040528092919081815260200182805461029690610b57565b80156102e35780601f106102b8576101008083540402835291602001916102e3565b820191906000526020600020905b8154815290600101906020018083116102c657829003601f168201915b505050505091509450945094509450509193509193565b600083815260208190526040902054156103655760405162461bcd60e51b815260206004820152602660248201527f53746f727920776974682074686520676976656e20494420616c72656164792060448201526565786973747360d01b60648201526084016101aa565b60408051608081018252848152602080820185815282840185905233606084015260008781529182905292902081518155915190919060018201906103aa9082610bda565b50604082015160028201906103bf9082610bda565b5060609190910151600390910180546001600160a01b0319166001600160a01b039092169190911790556001805480820182556000919091527fb10e2d527612073b26eecdfd717e6a320cf44b4afac2b0732d9fcbe2b7fa0cf601839055604051339084907fcde4c4546d4b1a68bd88af874f8482dcb0581f2d850e70c4797b44144039ac2790610451908690610c9a565b60405180910390a3505050565b6001818154811061046e57600080fd5b600091825260209091200154905081565b60015460609060009067ffffffffffffffff8111156104a0576104a061095b565b60405190808252806020026020018201604052801561050557816020015b6104f2604051806080016040528060008152602001606081526020016060815260200160006001600160a01b031681525090565b8152602001906001900390816104be5790505b50905060005b6001548110156106d05760006001828154811061052a5761052a610cb4565b9060005260206000200154905060008060008381526020019081526020016000209050806040518060800160405290816000820154815260200160018201805461057390610b57565b80601f016020809104026020016040519081016040528092919081815260200182805461059f90610b57565b80156105ec5780601f106105c1576101008083540402835291602001916105ec565b820191906000526020600020905b8154815290600101906020018083116105cf57829003601f168201915b5050505050815260200160028201805461060590610b57565b80601f016020809104026020016040519081016040528092919081815260200182805461063190610b57565b801561067e5780601f106106535761010080835404028352916020019161067e565b820191906000526020600020905b81548152906001019060200180831161066157829003601f168201915b5050509183525050600391909101546001600160a01b031660209091015284518590859081106106b0576106b0610cb4565b6020026020010181905250505080806106c890610cca565b91505061050b565b50919050565b6000828152602081905260408120805490910361072c5760405162461bcd60e51b815260206004820152601460248201527314dd1bdc9e48191bd95cc81b9bdd08195e1a5cdd60621b60448201526064016101aa565b6002810161073a8382610bda565b50336001600160a01b0316837f3a2fdd0ad4846b38e441fd7187befba92a09646b887ce0d5b23ba768c8dd4d33846040516104519190610c9a565b6000602081905290815260409020805460018201805491929161079790610b57565b80601f01602080910402602001604051908101604052809291908181526020018280546107c390610b57565b80156108105780601f106107e557610100808354040283529160200191610810565b820191906000526020600020905b8154815290600101906020018083116107f357829003601f168201915b50505050509080600201805461082590610b57565b80601f016020809104026020016040519081016040528092919081815260200182805461085190610b57565b801561089e5780601f106108735761010080835404028352916020019161089e565b820191906000526020600020905b81548152906001019060200180831161088157829003601f168201915b505050600390930154919250506001600160a01b031684565b6000602082840312156108c957600080fd5b5035919050565b6000815180845260005b818110156108f6576020818501810151868301820152016108da565b506000602082860101526020601f19601f83011685010191505092915050565b84815260806020820152600061092f60808301866108d0565b828103604084015261094181866108d0565b91505060018060a01b038316606083015295945050505050565b634e487b7160e01b600052604160045260246000fd5b600082601f83011261098257600080fd5b813567ffffffffffffffff8082111561099d5761099d61095b565b604051601f8301601f19908116603f011681019082821181831017156109c5576109c561095b565b816040528381528660208588010111156109de57600080fd5b836020870160208301376000602085830101528094505050505092915050565b600080600060608486031215610a1357600080fd5b83359250602084013567ffffffffffffffff80821115610a3257600080fd5b610a3e87838801610971565b93506040860135915080821115610a5457600080fd5b50610a6186828701610971565b9150509250925092565b60006020808301818452808551808352604092508286019150828160051b87010184880160005b83811015610b0257603f19898403018552815160808151855288820151818a870152610ac0828701826108d0565b9150508782015185820389870152610ad882826108d0565b6060938401516001600160a01b031696909301959095525094870194925090860190600101610a92565b509098975050505050505050565b60008060408385031215610b2357600080fd5b82359150602083013567ffffffffffffffff811115610b4157600080fd5b610b4d85828601610971565b9150509250929050565b600181811c90821680610b6b57607f821691505b6020821081036106d057634e487b7160e01b600052602260045260246000fd5b601f821115610bd557600081815260208120601f850160051c81016020861015610bb25750805b601f850160051c820191505b81811015610bd157828155600101610bbe565b5050505b505050565b815167ffffffffffffffff811115610bf457610bf461095b565b610c0881610c028454610b57565b84610b8b565b602080601f831160018114610c3d5760008415610c255750858301515b600019600386901b1c1916600185901b178555610bd1565b600085815260208120601f198616915b82811015610c6c57888601518255948401946001909101908401610c4d565b5085821015610c8a5787850151600019600388901b60f8161c191681555b5050505050600190811b01905550565b602081526000610cad60208301846108d0565b9392505050565b634e487b7160e01b600052603260045260246000fd5b600060018201610cea57634e487b7160e01b600052601160045260246000fd5b506001019056fea264697066735822122069a387cd52311302f3329a5ef1897b4929da00b958327d2baa02fc43a6c90a4264736f6c63430008110033",
  "devdoc": {
    "kind": "dev",
    "methods": {},
    "version": 1
  },
  "userdoc": {
    "kind": "user",
    "methods": {},
    "version": 1
  },
  "storageLayout": {
    "storage": [
      {
        "astId": 15,
        "contract": "contracts/Spooky.sol:Spooky",
        "label": "stories",
        "offset": 0,
        "slot": "0",
        "type": "t_mapping(t_uint256,t_struct(Story)10_storage)"
      },
      {
        "astId": 18,
        "contract": "contracts/Spooky.sol:Spooky",
        "label": "storyIds",
        "offset": 0,
        "slot": "1",
        "type": "t_array(t_uint256)dyn_storage"
      }
    ],
    "types": {
      "t_address": {
        "encoding": "inplace",
        "label": "address",
        "numberOfBytes": "20"
      },
      "t_array(t_uint256)dyn_storage": {
        "base": "t_uint256",
        "encoding": "dynamic_array",
        "label": "uint256[]",
        "numberOfBytes": "32"
      },
      "t_mapping(t_uint256,t_struct(Story)10_storage)": {
        "encoding": "mapping",
        "key": "t_uint256",
        "label": "mapping(uint256 => struct Spooky.Story)",
        "numberOfBytes": "32",
        "value": "t_struct(Story)10_storage"
      },
      "t_string_storage": {
        "encoding": "bytes",
        "label": "string",
        "numberOfBytes": "32"
      },
      "t_struct(Story)10_storage": {
        "encoding": "inplace",
        "label": "struct Spooky.Story",
        "members": [
          {
            "astId": 3,
            "contract": "contracts/Spooky.sol:Spooky",
            "label": "id",
            "offset": 0,
            "slot": "0",
            "type": "t_uint256"
          },
          {
            "astId": 5,
            "contract": "contracts/Spooky.sol:Spooky",
            "label": "title",
            "offset": 0,
            "slot": "1",
            "type": "t_string_storage"
          },
          {
            "astId": 7,
            "contract": "contracts/Spooky.sol:Spooky",
            "label": "content",
            "offset": 0,
            "slot": "2",
            "type": "t_string_storage"
          },
          {
            "astId": 9,
            "contract": "contracts/Spooky.sol:Spooky",
            "label": "author",
            "offset": 0,
            "slot": "3",
            "type": "t_address"
          }
        ],
        "numberOfBytes": "128"
      },
      "t_uint256": {
        "encoding": "inplace",
        "label": "uint256",
        "numberOfBytes": "32"
      }
    }
  }
}